{
  "_format": "hh-sol-artifact-1",
  "contractName": "Marketplace",
  "sourceName": "src/backend/contracts/Marketplace.sol",
  "abi": [
    {
      "inputs": [
        {
          "internalType": "uint256",
          "name": "_feePercent",
          "type": "uint256"
        }
      ],
      "stateMutability": "nonpayable",
      "type": "constructor"
    },
    {
      "anonymous": false,
      "inputs": [
        {
          "indexed": false,
          "internalType": "uint256",
          "name": "itemId",
          "type": "uint256"
        },
        {
          "indexed": true,
          "internalType": "address",
          "name": "nft",
          "type": "address"
        },
        {
          "indexed": false,
          "internalType": "uint256",
          "name": "tokenId",
          "type": "uint256"
        },
        {
          "indexed": true,
          "internalType": "address",
          "name": "seller",
          "type": "address"
        },
        {
          "indexed": true,
          "internalType": "address",
          "name": "buyer",
          "type": "address"
        }
      ],
      "name": "Bought",
      "type": "event"
    },
    {
      "anonymous": false,
      "inputs": [
        {
          "indexed": false,
          "internalType": "uint256",
          "name": "itemId",
          "type": "uint256"
        },
        {
          "indexed": true,
          "internalType": "address",
          "name": "nft",
          "type": "address"
        },
        {
          "indexed": false,
          "internalType": "uint256",
          "name": "tokenId",
          "type": "uint256"
        },
        {
          "indexed": false,
          "internalType": "uint256",
          "name": "price",
          "type": "uint256"
        },
        {
          "indexed": true,
          "internalType": "address",
          "name": "seller",
          "type": "address"
        }
      ],
      "name": "Offered",
      "type": "event"
    },
    {
      "inputs": [],
      "name": "feeAccount",
      "outputs": [
        {
          "internalType": "address payable",
          "name": "",
          "type": "address"
        }
      ],
      "stateMutability": "view",
      "type": "function"
    },
    {
      "inputs": [],
      "name": "feePercent",
      "outputs": [
        {
          "internalType": "uint256",
          "name": "",
          "type": "uint256"
        }
      ],
      "stateMutability": "view",
      "type": "function"
    },
    {
      "inputs": [
        {
          "internalType": "uint256",
          "name": "_itemId",
          "type": "uint256"
        }
      ],
      "name": "getTotalPrice",
      "outputs": [
        {
          "internalType": "uint256",
          "name": "",
          "type": "uint256"
        }
      ],
      "stateMutability": "view",
      "type": "function"
    },
    {
      "inputs": [],
      "name": "itemCount",
      "outputs": [
        {
          "internalType": "uint256",
          "name": "",
          "type": "uint256"
        }
      ],
      "stateMutability": "view",
      "type": "function"
    },
    {
      "inputs": [
        {
          "internalType": "uint256",
          "name": "",
          "type": "uint256"
        }
      ],
      "name": "items",
      "outputs": [
        {
          "internalType": "uint256",
          "name": "itemId",
          "type": "uint256"
        },
        {
          "internalType": "contract IERC721",
          "name": "nft",
          "type": "address"
        },
        {
          "internalType": "uint256",
          "name": "tokenId",
          "type": "uint256"
        },
        {
          "internalType": "uint256",
          "name": "price",
          "type": "uint256"
        },
        {
          "internalType": "address payable",
          "name": "seller",
          "type": "address"
        },
        {
          "internalType": "bool",
          "name": "sold",
          "type": "bool"
        }
      ],
      "stateMutability": "view",
      "type": "function"
    },
    {
      "inputs": [
        {
          "internalType": "contract IERC721",
          "name": "_nft",
          "type": "address"
        },
        {
          "internalType": "uint256",
          "name": "_tokenID",
          "type": "uint256"
        },
        {
          "internalType": "uint256",
          "name": "_price",
          "type": "uint256"
        }
      ],
      "name": "makeItems",
      "outputs": [],
      "stateMutability": "nonpayable",
      "type": "function"
    },
    {
      "inputs": [
        {
          "internalType": "uint256",
          "name": "_itemId",
          "type": "uint256"
        }
      ],
      "name": "purchaseItem",
      "outputs": [],
      "stateMutability": "payable",
      "type": "function"
    }
  ],
  "bytecode": "0x60c060405234801561001057600080fd5b5060405161105138038061105183398181016040528101906100329190610094565b60016000819055503373ffffffffffffffffffffffffffffffffffffffff1660808173ffffffffffffffffffffffffffffffffffffffff1660601b815250508060a08181525050506100de565b60008151905061008e816100c7565b92915050565b6000602082840312156100a657600080fd5b60006100b48482850161007f565b91505092915050565b6000819050919050565b6100d0816100bd565b81146100db57600080fd5b50565b60805160601c60a051610f3d610114600039600081816104b8015261056901526000818161048e015261078f0152610f3d6000f3fe6080604052600436106100705760003560e01c80637fd6f15c1161004e5780637fd6f15c146100f4578063bfb231d21461011f578063ca7dd37514610161578063d38ea5bf1461019e57610070565b806302d44b501461007557806365e17c9d1461009e5780636bfb0d01146100c9575b600080fd5b34801561008157600080fd5b5061009c600480360381019061009791906108ee565b6101ba565b005b3480156100aa57600080fd5b506100b361048c565b6040516100c09190610a60565b60405180910390f35b3480156100d557600080fd5b506100de6104b0565b6040516100eb9190610b52565b60405180910390f35b34801561010057600080fd5b506101096104b6565b6040516101169190610b52565b60405180910390f35b34801561012b57600080fd5b506101466004803603810190610141919061093d565b6104da565b60405161015896959493929190610b6d565b60405180910390f35b34801561016d57600080fd5b506101886004803603810190610183919061093d565b610563565b6040516101959190610b52565b60405180910390f35b6101b860048036038101906101b3919061093d565b6105c6565b005b60026000541415610200576040517f08c379a00000000000000000000000000000000000000000000000000000000081526004016101f790610af2565b60405180910390fd5b60026000819055506000811161024b576040517f08c379a000000000000000000000000000000000000000000000000000000000815260040161024290610b32565b60405180910390fd5b6001600081548092919061025e90610d65565b91905055508273ffffffffffffffffffffffffffffffffffffffff166323b872dd3330856040518463ffffffff1660e01b81526004016102a093929190610a7b565b600060405180830381600087803b1580156102ba57600080fd5b505af11580156102ce573d6000803e3d6000fd5b505050506040518060c0016040528060015481526020018473ffffffffffffffffffffffffffffffffffffffff1681526020018381526020018281526020013373ffffffffffffffffffffffffffffffffffffffff168152602001600015158152506002600060015481526020019081526020016000206000820151816000015560208201518160010160006101000a81548173ffffffffffffffffffffffffffffffffffffffff021916908373ffffffffffffffffffffffffffffffffffffffff160217905550604082015181600201556060820151816003015560808201518160040160006101000a81548173ffffffffffffffffffffffffffffffffffffffff021916908373ffffffffffffffffffffffffffffffffffffffff16021790555060a08201518160040160146101000a81548160ff0219169083151502179055509050503373ffffffffffffffffffffffffffffffffffffffff168373ffffffffffffffffffffffffffffffffffffffff167f655a0cf9c8db81512be9a76dc1c5ae5380b8816ce6ad659cd61b715e2999d59a600154858560405161047793929190610bce565b60405180910390a36001600081905550505050565b7f000000000000000000000000000000000000000000000000000000000000000081565b60015481565b7f000000000000000000000000000000000000000000000000000000000000000081565b60026020528060005260406000206000915090508060000154908060010160009054906101000a900473ffffffffffffffffffffffffffffffffffffffff16908060020154908060030154908060040160009054906101000a900473ffffffffffffffffffffffffffffffffffffffff16908060040160149054906101000a900460ff16905086565b600060647f000000000000000000000000000000000000000000000000000000000000000060646105949190610c47565b61059e9190610c16565b60026000848152602001908152602001600020600301546105bf9190610c47565b9050919050565b6002600054141561060c576040517f08c379a000000000000000000000000000000000000000000000000000000000815260040161060390610af2565b60405180910390fd5b6002600081905550600061061f82610563565b9050600060026000848152602001908152602001600020905060008311801561064a57506001548311155b610689576040517f08c379a000000000000000000000000000000000000000000000000000000000815260040161068090610ad2565b60405180910390fd5b813410156106cc576040517f08c379a00000000000000000000000000000000000000000000000000000000081526004016106c390610ab2565b60405180910390fd5b8060040160149054906101000a900460ff161561071e576040517f08c379a000000000000000000000000000000000000000000000000000000000815260040161071590610b12565b60405180910390fd5b8060040160009054906101000a900473ffffffffffffffffffffffffffffffffffffffff1673ffffffffffffffffffffffffffffffffffffffff166108fc82600301549081150290604051600060405180830381858888f1935050505015801561078c573d6000803e3d6000fd5b507f000000000000000000000000000000000000000000000000000000000000000073ffffffffffffffffffffffffffffffffffffffff166108fc8260030154846107d79190610ca1565b9081150290604051600060405180830381858888f19350505050158015610802573d6000803e3d6000fd5b5060018160040160146101000a81548160ff0219169083151502179055508060010160009054906101000a900473ffffffffffffffffffffffffffffffffffffffff1673ffffffffffffffffffffffffffffffffffffffff166323b872dd303384600201546040518463ffffffff1660e01b815260040161088593929190610a7b565b600060405180830381600087803b15801561089f57600080fd5b505af11580156108b3573d6000803e3d6000fd5b505050505050600160008190555050565b6000813590506108d381610ed9565b92915050565b6000813590506108e881610ef0565b92915050565b60008060006060848603121561090357600080fd5b6000610911868287016108c4565b9350506020610922868287016108d9565b9250506040610933868287016108d9565b9150509250925092565b60006020828403121561094f57600080fd5b600061095d848285016108d9565b91505092915050565b61096f81610ce7565b82525050565b61097e81610cd5565b82525050565b61098d81610cf9565b82525050565b61099c81610d41565b82525050565b60006109af601283610c05565b91506109ba82610e0c565b602082019050919050565b60006109d2601383610c05565b91506109dd82610e35565b602082019050919050565b60006109f5601f83610c05565b9150610a0082610e5e565b602082019050919050565b6000610a18601183610c05565b9150610a2382610e87565b602082019050919050565b6000610a3b601c83610c05565b9150610a4682610eb0565b602082019050919050565b610a5a81610d37565b82525050565b6000602082019050610a756000830184610966565b92915050565b6000606082019050610a906000830186610975565b610a9d6020830185610975565b610aaa6040830184610a51565b949350505050565b60006020820190508181036000830152610acb816109a2565b9050919050565b60006020820190508181036000830152610aeb816109c5565b9050919050565b60006020820190508181036000830152610b0b816109e8565b9050919050565b60006020820190508181036000830152610b2b81610a0b565b9050919050565b60006020820190508181036000830152610b4b81610a2e565b9050919050565b6000602082019050610b676000830184610a51565b92915050565b600060c082019050610b826000830189610a51565b610b8f6020830188610993565b610b9c6040830187610a51565b610ba96060830186610a51565b610bb66080830185610966565b610bc360a0830184610984565b979650505050505050565b6000606082019050610be36000830186610a51565b610bf06020830185610a51565b610bfd6040830184610a51565b949350505050565b600082825260208201905092915050565b6000610c2182610d37565b9150610c2c83610d37565b925082610c3c57610c3b610ddd565b5b828204905092915050565b6000610c5282610d37565b9150610c5d83610d37565b9250817fffffffffffffffffffffffffffffffffffffffffffffffffffffffffffffffff0483118215151615610c9657610c95610dae565b5b828202905092915050565b6000610cac82610d37565b9150610cb783610d37565b925082821015610cca57610cc9610dae565b5b828203905092915050565b6000610ce082610d17565b9050919050565b6000610cf282610d17565b9050919050565b60008115159050919050565b6000610d1082610cd5565b9050919050565b600073ffffffffffffffffffffffffffffffffffffffff82169050919050565b6000819050919050565b6000610d4c82610d53565b9050919050565b6000610d5e82610d17565b9050919050565b6000610d7082610d37565b91507fffffffffffffffffffffffffffffffffffffffffffffffffffffffffffffffff821415610da357610da2610dae565b5b600182019050919050565b7f4e487b7100000000000000000000000000000000000000000000000000000000600052601160045260246000fd5b7f4e487b7100000000000000000000000000000000000000000000000000000000600052601260045260246000fd5b7f496e73756666696369656e742066756e64730000000000000000000000000000600082015250565b7f4974656d20646f6573206e6f7420657869737400000000000000000000000000600082015250565b7f5265656e7472616e637947756172643a207265656e7472616e742063616c6c00600082015250565b7f4974656d20616c726561647920736f6c64000000000000000000000000000000600082015250565b7f5072696365206d7573742062652067726561746572207468616e203000000000600082015250565b610ee281610d05565b8114610eed57600080fd5b50565b610ef981610d37565b8114610f0457600080fd5b5056fea2646970667358221220df1a55b0c599957aaf847252186619f8a7fe109c034258cfe08dff5f26484b2064736f6c63430008040033",
  "linkReferences": {},
  "deployedLinkReferences": {}
}